:1000000012C017C016C015C014C013C012C011C052
:1000100010C00FC00EC00DC00CC00BC00AC009C07C
:1000200008C007C006C011241FBECFEDCDBF6ED0E3
:1000300074C0E6CF87E893E10197F1F700C00000B4
:100040000895C09AC19AC29887E893E10197F1F7A1
:1000500000C00000C09AC198C29887E893E1019758
:10006000F1F700C00000C09AC198C29A87E893E1F6
:100070000197F1F700C00000C098C198C29A87E8C4
:1000800093E10197F1F700C00000C098C19AC29AAD
:1000900087E893E10197F1F700C00000C098C19A8A
:1000A000C29887E893E10197F1F700C00000089536
:1000B000C098C19AC29887E893E10197F1F700C010
:1000C0000000C098C19AC29A87E893E10197F1F7BE
:1000D00000C00000C098C198C29A87E893E10197D8
:1000E000F1F700C00000C09AC198C29A87E893E176
:1000F0000197F1F700C00000C09AC198C29887E844
:1001000093E10197F1F700C0000008958E98969A48
:0E01100087B3876087BB95DFFECFF894FFCFE3
:00000001FF
