:1000000012C01FC01EC01DC01CC01BC01AC028C00B
:1000100018C017C016C015C014C013C012C011C03C
:1000200010C00FC00EC011241FBECFEDCDBF20E009
:10003000A0E6B0E001C01D92A136B207E1F7D6D02C
:10004000F5C0DECF89E189B912B888E98AB9089587
:100050005D9BFECF8CB908955F9BFECF8CB1089558
:100060001F920F920FB60F9211248F938CB18A308A
:1000700019F08CB1809360008F910F900FBE0F909C
:100080001F90189587E893E10197F1F700C00000F1
:100090000895C29AC69A87E893E10197F1F700C0E4
:1000A0000000C298C698C19AC59A87E893E1019763
:1000B000F1F700C00000C198C598C09AC49A87E8BB
:1000C00093E10197F1F700C00000C098C498969A98
:1000D000C39A87E893E10197F1F700C00000969872
:1000E000C3980895969AC39A87E893E10197F1F728
:1000F00000C000009698C398C09AC49A87E893E11C
:100100000197F1F700C00000C098C498C19AC59A41
:1001100087E893E10197F1F700C00000C198C59806
:10012000C29AC69A87E893E10197F1F700C00000F0
:10013000C298C6980895969AC69A87E893E101975F
:10014000F1F700C000009698C698C09AC59A87E853
:1001500093E10197F1F700C00000C098C598C19ADB
:10016000C49A87E893E10197F1F700C00000C198B5
:10017000C498C29AC39A87E893E10197F1F700C047
:100180000000C298C3980895C29AC39A87E893E181
:100190000197F1F700C00000C298C398C19AC49AB1
:1001A00087E893E10197F1F700C00000C198C49877
:1001B000C09AC59A87E893E10197F1F700C0000063
:1001C000C098C598969AC69A87E893E10197F1F787
:1001D00000C000009698C6980895C298C698C19825
:1001E000C598C098C4989698C398089587B38F67A8
:1001F00087BB8E9A27DF789480916000853709F459
:1002000048DF80916000843609F46CDF80916000E3
:100210008C3609F4B9DF80916000823709F48BDFF6
:1002200080916000833741F7D8DFE6CFF894FFCFA5
:00000001FF
