:1000000012C01FC01EC01DC01CC01BC01AC028C00B
:1000100018C017C016C015C014C013C012C011C03C
:1000200010C00FC00EC011241FBECFEDCDBF20E009
:10003000A0E6B0E001C01D92A136B207E1F748D0BA
:10004000BFC0DECF89E189B912B888E98AB90895BD
:100050005D9BFECF8CB908955F9BFECF8CB1089558
:100060001F920F920FB60F9211248F938CB18A308A
:1000700019F08CB1809360008F910F900FBE0F909C
:100080001F90189587E893E10197F1F700C00000F1
:100090000895C69AC598C19AC0980895C698C59AF9
:1000A000C198C09A0895C698C59AC19AC0980895F3
:1000B000C69AC598C198C09A0895C698C598C1981F
:1000C000C0980895C498C398089586BF8CBF0895BA
:1000D00087B3876687BB8D9A81EA80BF85E083BF3F
:1000E00082E886BF8CBFAEDF7894C5E0DEE117E31F
:1000F00000E529E6F22E32E8E32E4BE9D42E84EB1C
:10010000C82E9DECB92E80916000853709F4C1DFBF
:1001100080916000843609F4C1DF809160008C36E4
:1001200009F4C6DF80916000823709F4BCDF80915A
:100130006000833709F4C1DF80916000823609F4E2
:10014000C1DF80916000803311F4C6BFCCBF8091C5
:100150006000813311F4D6BFDCBF80916000823330
:1001600011F416BF1CBF80916000833311F406BFE9
:100170000CBF80916000843311F4F6BEFCBE809108
:100180006000853311F4E6BEECBE809160008633DA
:1001900011F4D6BEDCBE80916000873311F4C6BE78
:1001A000CCBE80916000883311F4B6BEBCBE809195
:1001B0006000893309F0A7CF8FEF86BF8CBF9FCF38
:0401C000F894FFCFE1
:00000001FF
