:1000000012C017C016C015C014C013C012C011C052
:1000100010C00FC00EC00DC00CC00BC00AC009C07C
:1000200008C007C006C011241FBECFEDCDBF50D001
:1000300058C0E6CF87E893E10197F1F700C00000D0
:100040000895C29AC19A87E893E10197F1F700C039
:100050000000C298C19AC09A87E893E10197F1F72E
:1000600000C00000C198C09A969A87E893E1019772
:10007000F1F700C00000C098969AC29A87E893E111
:100080000197F1F700C000009698C2980895C29AAF
:1000900087E893E10197F1F700C00000C298C19A88
:1000A00087E893E10197F1F700C00000C198C09A7A
:1000B00087E893E10197F1F700C00000C098969A95
:1000C00087E893E10197F1F700C000009698089542
:1000D00087B3876087BB8E9A8D98959A80B3B1DF7E
:0600E000FDCFF894FFCFF4
:00000001FF
