:1000000012C017C016C015C014C013C012C011C052
:1000100010C00FC00EC00DC00CC00BC00AC009C07C
:1000200008C007C006C011241FBECFEDCDBF79D0D8
:100030008CC0E6CF969AC098C198C29808959698B9
:10004000C09AC198C29808959698C098C19AC298CB
:1000500008959698C098C198C29A0895969A8FE389
:100060009CE90197F1F700C0000096988FE39CE9A6
:100070000197F1F700C00000C09A8FE39CE9019757
:10008000F1F700C00000C0988FE39CE90197F1F7F9
:1000900000C00000C19A8FE39CE90197F1F700C00E
:1000A0000000C1988FE39CE90197F1F700C00000C0
:1000B000C29A8FE39CE90197F1F700C00000C29853
:1000C0008FE39CE90197F1F700C00000C19A8FE32C
:1000D0009CE90197F1F700C00000C1988FE39CE90B
:1000E0000197F1F700C00000C09A8FE39CE90197E7
:1000F000F1F700C00000C0988FE39CE90197F1F789
:1001000000C00000969A8FE39CE90197F1F700C0C8
:10011000000096988FE39CE90197F1F700C000007A
:1001200008958E9A87B3876087BB81B381BB82B302
:100130008C6382BB93DF85997DDF849980DF83990F
:0E01400083DF829BF8CF85DFF6CFF894FFCFE8
:00000001FF
