:1000000012C01FC01EC01DC01CC01BC01AC028C00B
:1000100018C017C016C015C014C013C012C011C03C
:1000200010C00FC00EC011241FBECFEDCDBF20E009
:10003000A0E6B0E001C01D92A136B207E1F71FD0E3
:1000400030C0DECF89E189B912B888E98AB908954C
:100050005D9BFECF8CB908955F9BFECF8CB1089558
:100060001F920F920FB60F9211248F938CB1809331
:1000700060008F910F900FBE0F901F901895E2DFD8
:10008000789481E48093600080916000E1DF2FEF3D
:1000900084E39CE0215080409040E1F700C00000E4
:0600A000F3CFF894FFCF3E
:00000001FF
