:1000000012C017C016C015C014C013C012C011C052
:1000100010C00FC00EC00DC00CC00BC00AC009C07C
:1000200008C007C006C011241FBECFEDCDBFADD0A4
:10003000C9C0E6CF87E893E10197F1F700C000005F
:100040000895C29AC69A87E893E10197F1F700C034
:100050000000C298C698C19AC59A87E893E10197B3
:10006000F1F700C00000C198C598C09AC49A87E80B
:1000700093E10197F1F700C00000C098C498969AE8
:10008000C39A87E893E10197F1F700C000009698C2
:10009000C3980895969AC39A87E893E10197F1F778
:1000A00000C000009698C398C09AC49A87E893E16C
:1000B0000197F1F700C00000C098C498C19AC59A92
:1000C00087E893E10197F1F700C00000C198C59857
:1000D000C29AC69A87E893E10197F1F700C0000041
:1000E000C298C6980895C29AC39A87E893E1019787
:1000F000F1F700C00000C298C398C19AC49A87E87B
:1001000093E10197F1F700C00000C198C498C09A2C
:10011000C59A87E893E10197F1F700C00000C09805
:10012000C598969AC69A87E893E10197F1F700C0BF
:1001300000009698C6980895969AC69A87E893E123
:100140000197F1F700C000009698C698C09AC59A2A
:1001500087E893E10197F1F700C00000C098C598C7
:10016000C19AC49A87E893E10197F1F700C00000B3
:10017000C198C498C29AC39A87E893E10197F1F7AE
:1001800000C00000C298C398089587B38F6787BBEB
:100190008E9A8D98959A8C98949A8B98939A8A981F
:1001A000929A859B4EDF849B75DF839BC5DF829B84
:1001B0009ADFC298C698C198C598C098C498969876
:0801C000C398EFCFF894FFCFC4
:00000001FF
