:1000000012C017C016C015C014C013C012C011C052
:1000100010C00FC00EC00DC00CC00BC00AC009C07C
:1000200008C007C006C011241FBECFEDCDBF02D04F
:1000300028C0E6CF87B3876087BB80E090E041E0CF
:1000400050E068B39A01082E01C0220F0A94EAF723
:10005000622B68BBEFE4F3EC3197F1F700C00000CE
:1000600038B32095232328BBEFE4F3EC3197F1F765
:1000700000C000000196833091051CF380E090E001
:06008000E0CFF894FFCF71
:00000001FF
