:100000007EC08EC08DC08CC08BC08AC089C088C0A5
:1000100087C086C085C084C083C082C081C080C0C4
:100020007FC07EC07DC08E0486047F047804710486
:100030006A0464045F04590454044F044B044704E5
:1000400043043F043B043804350432042F042C04D9
:100050002A04270425048E0386037F037803710393
:100060006A0364035F03590354034F034B034703BD
:1000700043033F033B033803350332032F032C03B1
:100080002A0327032503230321031F031D031B0347
:100090001A031803170316031403130312038E0223
:1000A00086027F02780271026A0264025F025902CC
:1000B00054024F024B02470243023F023B02380206
:1000C000350232022F022C022A02270225022302C5
:1000D00021021F021D021B021A0218021702160239
:1000E000140213021202840180017C017801740160
:1000F00071016E016B0168016501630160011124EA
:100100001FBECFEDCDBF10E0A0E6B0E0E6E9F4E021
:1001100002C005900D92A436B107D9F75BD0B9C1E2
:100120006FCFCF93DF93CDB7DD27C450CDBF262F40
:1001300090E06CE070E06FD0820F911D880F991FE6
:100140008A5D9F4FFC0185919491A0E0B0E0898386
:100150009A83AB83BC8383B7887F9A81892B83BFC3
:100160008981815086BFCC5FCDBFDF91CF9108954B
:100170008130910529F48FE493EC0197F1F727C0C2
:100180008230910541F49FEF20E782E091502040BA
:100190008040E1F71CC08330910541F49FE729EAD4
:1001A00083E0915020408040E1F711C0049741F472
:1001B0009FEB26EB86E0915020408040E1F707C09E
:1001C0009FE72BE888E0915020408040E1F700C095
:1001D000000008958D98959ABA9A18BA80B78260EF
:1001E00080BF80B7806480BF0CE010E0C6E0D0E044
:1001F000859B06C08BD0B8011FD0682F88E005C052
:1002000085D0B80119D0682F85E08BDF7FD0BE0183
:1002100013D0AEDFEDCF0024552704C0080E591FC0
:10022000880F991F009729F076956795B8F37105A7
:10023000B9F7802D952F089597FB072E16F400949B
:1002400006D077FD08D00BD007FC05D03EF4909582
:1002500081959F4F0895709561957F4F0895AA1BD2
:10026000BB1B51E107C0AA1FBB1FA617B70710F0A1
:10027000A61BB70B881F991F5A95A9F780959095D3
:10028000BC01CD010895A0E0B0E0E8E4F1E08AC04F
:10029000EC01688179818A819B81611571058105F5
:1002A000910521F464E279ED8BE597E02DE133EFE0
:1002B00041E050E038D049015A0127EA31E440E0FA
:1002C00050E04DD069017A01C501B4012CEE34EF44
:1002D0004FEF5FEF44D089019A01C00ED11EE21E9C
:1002E000F31EF7FE06C081E0C81AD108E10880E8D5
:1002F000F80AC882D982EA82FB82C701B6019F77D9
:10030000CDB7DEB7ECE065C0BEDF089580E690E0D3
:10031000BADF08956093600070936100809362007B
:10032000909363000895052E97FB16F400940FD068
:1003300057FD05D05ED007FC02D046F408C05095AA
:100340004095309521953F4F4F4F5F4F08959095C1
:100350008095709561957F4F8F4F9F4F089568945A
:100360000013E894A0E0B0E0E7EBF1E01DC0EFEF90
:10037000E7F959016A015E23550FEE08FE2C87014B
:100380009B01AC019E23990F660B762FCB0153D0B6
:10039000CDB7DD27EAE01FC02F923F924F925F92C8
:1003A0006F927F928F929F92AF92BF92CF92DF9285
:1003B000EF92FF920F931F93CF93DF93CDB7CA1B9A
:1003C000CDBFDD2709942A88398848885F846E84E8
:1003D0007D848C849B84AA84B984C884DF80EE8069
:1003E000FD800C811B81AA81D981CE0FCDBFCA2F80
:1003F0000895A1E21A2EAA1BBB1BFD010DC0AA1F66
:10040000BB1FEE1FFF1FA217B307E407F50720F07D
:10041000A21BB30BE40BF50B661F771F881F991FF8
:100420001A9469F760957095809590959B01AC0141
:10043000BD01CF010895DF93CF939F92A0E49A2E40
:100440000024D001E001F00116950795F794E79498
:10045000D794C794B794A79448F41068A20FB31F19
:10046000C41FD51FE61FF71F081E191E220F331FBA
:10047000441F551F661F771F881F991F9A9421F7E5
:100480009D01AE01BF01C00111249F90CF91DF916A
:060490000895F894FFCF6F
:040496000100000061
:00000001FF
