:1000000012C01FC01EC01DC01CC01BC01AC019C01A
:1000100018C017C016C015C014C013C012C011C03C
:1000200010C00FC00EC011241FBECFEDCDBF20E009
:10003000A0E6B0E001C01D92A236B207E1F787D07A
:10004000A2C0DECF8091600090916100892B39F4CD
:1000500081E090E0909361008093600004C0109272
:100060006100109260002FE789EA93E02150804000
:100070009040E1F700C000000895969A8FE19EE459
:100080000197F1F700C0000096988FE19EE4019778
:10009000F1F700C00000C09A8FE19EE40197F1F7EC
:1000A00000C00000C0988FE19EE40197F1F700C006
:1000B0000000C19A8FE19EE40197F1F700C00000B3
:1000C000C1988FE19EE40197F1F700C00000C29A49
:1000D0008FE19EE40197F1F700C00000C2988FE124
:1000E0009EE40197F1F700C00000C19A8FE19EE401
:1000F0000197F1F700C00000C1988FE19EE40197DD
:10010000F1F700C00000C09A8FE19EE40197F1F77B
:1001100000C00000C0988FE19EE40197F1F700C095
:1001200000000895969AC09AC19AC29A8FE295E704
:100130000197F1F700C000009698C098C198C29846
:100140008FE295E70197F1F700C0000008958E9ABD
:1001500087B3876087BBBF98C79AB79B08C0809159
:10016000600090916100892B11F487DFF6CFB79B77
:1001700008C08091600090916100019711F4D2DF76
:0A018000ECCF60DFEACFF894FFCF68
:00000001FF
